:100000000C942A000C9464090C9447000C9447004B
:100010000C9447000C9447000C9447000C94470044
:100020000C9447000C9447000C9447000C94470034
:100030000C9447000C9447000C9447000C94470024
:100040000C9447000C9447000C9447000C94470014
:100050000C94470011241FBECFE5D8E0DEBFCDBF12
:1000600010E0A8E6B0E001C01D92AA36B107E1F7A2
:1000700010E0A0E6B0E0E2EDFDE102C005900D92D7
:10008000A836B107D9F70E945B090C94E70E0C94CF
:100090000000EF92FF920F931F937B018C0120E0F1
:1000A00030E040E05FE40E94490388238CF0C801FF
:1000B000B70120E030E040E05FE40E94C1010E940F
:1000C000A9039B01AC01205030404040504806C07D
:1000D000C801B7010E94A9039B01AC01B901CA0183
:1000E0001F910F91FF90EF900895A0E0B0E0EBE733
:1000F000F0E00C94B00EDC012B01FA019C919230DF
:1001000008F439C1EB018881823008F433C194309E
:1001100069F4843009F02FC111969C91119789815F
:10012000981709F428C1A0E6B0E025C1843009F48D
:1001300021C18230A9F4923009F01DC19A01AD01AC
:1001400088E0EA010990AE01E90109929E0181501F
:10015000C1F7E201898111969C918923818308C1AD
:10016000923009F407C112962D903C901397EB0141
:100170008A819B811496AD90BD90CD90DC901797AD
:10018000EC80FD800E811F819101281B390BB90184
:1001900037FF04C066277727621B730B6032710537
:1001A0000CF061C0121613066CF537014801062EDB
:1001B00004C096948794779467940A94D2F721E0C8
:1001C00030E040E050E004C0220F331F441F551FB1
:1001D0006A95D2F721503040404050402E213F21B7
:1001E00040235123211531054105510521F021E01E
:1001F00030E040E050E079018A01E628F72808293C
:1002000019293CC0232BD1F1260E371E350146019A
:10021000062E04C096948794779467940A94D2F734
:1002200021E030E040E050E004C0220F331F441FC3
:10023000551F6A95D2F721503040404050402A2146
:100240003B214C215D21211531054105510521F04E
:1002500021E030E040E050E059016A01A628B728CB
:10026000C828D9280BC0821593052CF01C01AA249C
:10027000BB24650103C0EE24FF24870111969C91E5
:10028000D20111968C91981709F445C0992339F041
:10029000A80197012A193B094C095D0906C0A6016E
:1002A00095012E193F09400B510B57FD08C01182D3
:1002B0003382228224833583468357831DC081E0A5
:1002C00081833382228288279927DC01821B930B4A
:1002D000A40BB50B84839583A683B7830DC0220F2F
:1002E000331F441F551F24833583468357838281E0
:1002F000938101979383828324813581468157813D
:10030000DA01C9010197A109B1098F5F9F4FAF4F72
:10031000BF4328F30BC0918333822282EA0CFB1C7B
:100320000C1D1D1DE482F5820683178383E0808304
:10033000248135814681578157FF1AC0C901AA27F8
:1003400097FDA095BA2F81709070A070B0705695EF
:10035000479537952795822B932BA42BB52B848318
:100360009583A683B7838281938101969383828349
:10037000DF0101C0D201CD01CDB7DEB7E2E10C94BF
:10038000CC0EA0E2B0E0E7ECF1E00C94BC0E698387
:100390007A838B839C832D833E834F835887E9E048
:1003A000EE2EF12CEC0EFD1ECE010196B7010E943F
:1003B000D2048E010F5E1F4FCE010596B8010E9438
:1003C000D2048A8991E089278A8BC701B801AE01DE
:1003D000475E5F4F0E9475000E94FD03A096E6E015
:1003E0000C94D80EA0E2B0E0E8EFF1E00C94BC0E63
:1003F00069837A838B839C832D833E834F835887C5
:10040000F9E0EF2EF12CEC0EFD1ECE010196B701A6
:100410000E94D2048E010F5E1F4FCE010596B801D7
:100420000E94D204C701B801AE01475E5F4F0E942F
:1004300075000E94FD03A096E6E00C94D80EA0E2A1
:10044000B0E0E5E2F2E00C94B00E69837A838B832E
:100450009C832D833E834F835887CE010196BE0136
:10046000675F7F4F0E94D204CE010596BE016F5E8A
:100470007F4F0E94D2049985923088F0898982301A
:10048000C8F0943019F4823051F404C0843029F457
:10049000923081F480E690E0C6C0923049F420E0CA
:1004A0009A858A89981321E02A87CE010996BBC0D4
:1004B000823049F420E09A858A89981321E02A8BBA
:1004C000CE014196B0C02D843E844F8458886D88FB
:1004D0007E888F88988CEE24FF248701AA24BB2471
:1004E000650140E050E060E070E0E0E0F0E0C10174
:1004F00081709070892BE9F0E60CF71C081D191D1E
:100500009A01AB012A0D3B1D4C1D5D1D80E090E062
:10051000A0E0B0E0E614F7040805190520F481E036
:1005200090E0A0E0B0E0BA01A901480F591F6A1F8E
:100530007B1FAA0CBB1CCC1CDD1C97FE08C081E0F5
:1005400090E0A0E0B0E0A82AB92ACA2ADB2A3196B6
:10055000E032F10549F0660C771C881C991C569412
:10056000479437942794C3CFFA85EA892B893C892D
:100570008B859C85280F391F2E5F3F4F17C0CA01FE
:1005800081709070892B61F016950795F794E79428
:1005900080E090E0A0E0B0E8E82AF92A0A2B1B2BC3
:1005A00076956795579547952F5F3F4F77FDE7CF36
:1005B0000CC0440F551F661F771F17FD4160EE0CDE
:1005C000FF1C001F111F21503040403090E05907A0
:1005D00090E0690790E4790760F32B8F3C8FDB0193
:1005E000CA018F779070A070B07080349105A1051A
:1005F000B10561F447FD0AC0E114F10401051105DC
:1006000029F0405C5F4F6F4F7F4F40781A8EFE1786
:1006100011F081E08A8F4D8F5E8F6F8F78A383E01A
:10062000898FCE0149960E94FD03A096E2E10C94C9
:10063000CC0EA8E1B0E0EFE1F3E00C94BC0E6983CE
:100640007A838B839C832D833E834F83588789E0F5
:10065000E82EF12CEC0EFD1ECE010196B7010E9492
:10066000D2048E010F5E1F4FCE010596B8010E9485
:10067000D2048985823040F08989823028F0C70110
:10068000B8010E944A0501C08FEF6896E6E00C941D
:10069000D80EA8E1B0E0EFE4F3E00C94BC0E69835F
:1006A0007A838B839C832D833E834F83588789E095
:1006B000E82EF12CEC0EFD1ECE010196B7010E9432
:1006C000D2048E010F5E1F4FCE010596B8010E9425
:1006D000D2048985823040F08989823028F0C701B0
:1006E000B8010E944A0501C08FEF6896E6E00C94BD
:1006F000D80EA8E1B0E0EFE7F3E00C94BC0E6983FC
:100700007A838B839C832D833E834F83588789E034
:10071000E82EF12CEC0EFD1ECE010196B7010E94D1
:10072000D2048E010F5E1F4FCE010596B8010E94C4
:10073000D2048985823040F08989823028F0C7014F
:10074000B8010E944A0501C081E06896E6E00C9479
:10075000D80EACE0B0E0EFEAF3E00C94C00E698391
:100760007A838B839C83CE010196BE016B5F7F4FA2
:100770000E94D2048D81823061F1823050F1843048
:1007800021F48E81882351F12EC02F81388537FDC9
:1007900020C06E812F3131051CF06623F9F023C093
:1007A0008EE190E0821B930B29853A854B855C8511
:1007B00004C056954795379527958A95D2F76623B5
:1007C000B1F050954095309521953F4F4F4F5F4F79
:1007D0000EC020E030E040E050E009C02FEF3FEFD6
:1007E0004FEF5FE704C020E030E040E050E8B9019F
:1007F000CA012C96E2E00C94DC0EDF92EF92FF929D
:100800000F931F93FC01E480F58006811781D1804E
:100810008081823048F480E090E0A0E1B0E0E82AF6
:10082000F92A0A2B1B2BA5C0843009F49FC0823003
:1008300021F4EE24FF24870105C0E114F104010531
:10084000110519F4E0E0F0E096C0628173819FEF3A
:10085000623879070CF05BC022E83FEF261B370BAC
:100860002A3131052CF020E030E040E050E02AC091
:10087000B801A701022E04C0769567955795479554
:100880000A94D2F781E090E0A0E0B0E004C0880FC5
:10089000991FAA1FBB1F2A95D2F70197A109B10979
:1008A0008E219F21A023B1230097A105B10521F03E
:1008B00081E090E0A0E0B0E09A01AB01282B392B59
:1008C0004A2B5B2BDA01C9018F779070A070B07052
:1008D00080349105A105B10539F427FF09C0205CDA
:1008E0003F4F4F4F5F4F04C0215C3F4F4F4F5F4F13
:1008F000E0E0F0E02030A0E03A07A0E04A07A0E402
:100900005A0710F0E1E0F0E079018A0127C0603871
:10091000710564F5FB01E158FF4FD801C7018F77DE
:100920009070A070B07080349105A105B10539F4C4
:10093000E7FE0DC080E490E0A0E0B0E004C08FE3EB
:1009400090E0A0E0B0E0E80EF91E0A1F1B1F17FFA1
:1009500005C016950795F794E794319687E01695AC
:100960000795F794E7948A95D1F705C0EE24FF2404
:100970008701EFEFF0E06E2F679566276795902F60
:100980009F77D794DD24D7948E2F8695492F462BB9
:10099000582F5D29B701CA011F910F91FF90EF9069
:1009A000DF900895FC01DB01408151812281622F9B
:1009B0006F7770E0221F2227221F9381892F880FD3
:1009C000822B282F30E0991F9927991F11969C930D
:1009D000119721153105A9F54115510561057105DD
:1009E00011F482E037C082E89FEF13969C938E93B8
:1009F00012979A01AB0167E0220F331F441F551F66
:100A00006A95D1F783E08C930DC0220F331F441FEA
:100A1000551F12968D919C911397019713969C9355
:100A20008E931297203080E0380780E0480780E4FA
:100A3000580758F314962D933D934D935C93179755
:100A400008952F3F310579F4411551056105710570
:100A500019F484E08C93089564FF03C081E08C93C3
:100A600012C01C9210C02F57304013963C932E9307
:100A7000129783E08C9387E0440F551F661F771F02
:100A80008A95D1F7706414964D935D936D937C9322
:100A9000179708951F93DC01FB019C91923008F495
:100AA00047C08081823008F443C0943051F41196DD
:100AB0001C91843099F58181682F70E0611B710968
:100AC0003FC0843021F0923031F48230B9F181811D
:100AD000882389F12DC011961C9111978230F1F075
:100AE00081811817D9F412962D913C911397828128
:100AF00093818217930794F028173907BCF0149656
:100B00008D919D910D90BC91A02D248135814681C0
:100B10005781281739074A075B0718F4112341F05A
:100B20000AC082179307A407B50740F4112319F0F0
:100B300061E070E005C06FEF7FEF02C060E070E041
:100B4000CB011F910895DF93CF9300D0CDB7DEB7CF
:100B500089836A8389816A8140E00E94D2050F906F
:100B60000F90CF91DF910895DF93CF9300D000D005
:100B7000CDB7DEB78B836C831A8219828B816C812F
:100B80000E9498078A838A81813019F481E08983E1
:100B900001C0198289810F900F900F900F90CF9113
:100BA000DF910895DF93CF9300D000D00F92CDB79F
:100BB000DEB789836A834B838981282F30E03D83A8
:100BC0002C838C819D818130910509F443C02C8157
:100BD0003D81223031052CF48C819D81009771F08C
:100BE000BCC02C813D812230310509F45FC08C816D
:100BF0009D818330910509F485C0AFC08B81813020
:100C0000A1F4AAE3B0E0EAE3F0E08081482F8A8112
:100C1000282F30E081E090E0022E02C0880F991F5B
:100C20000A94E2F7842B8C9398C0AAE3B0E0EAE33D
:100C3000F0E08081482F8A81282F30E081E090E029
:100C4000022E02C0880F991F0A94E2F78095842330
:100C50008C9383C08B818130A1F4A7E3B0E0E7E3FC
:100C6000F0E08081482F8A81282F30E081E090E0F9
:100C7000022E02C0880F991F0A94E2F7842B8C93EE
:100C80006CC0A7E3B0E0E7E3F0E08081482F8A8101
:100C9000282F30E081E090E0022E02C0880F991FDB
:100CA0000A94E2F7809584238C9357C08B8181301E
:100CB000A1F4A4E3B0E0E4E3F0E08081482F8A816E
:100CC000282F30E081E090E0022E02C0880F991FAB
:100CD0000A94E2F7842B8C9340C0A4E3B0E0E4E3F1
:100CE000F0E08081482F8A81282F30E081E090E079
:100CF000022E02C0880F991F0A94E2F78095842380
:100D00008C932BC08B818130A1F4A1E3B0E0E1E3AF
:100D1000F0E08081482F8A81282F30E081E090E048
:100D2000022E02C0880F991F0A94E2F7842B8C933D
:100D300014C0A1E3B0E0E1E3F0E08081482F8A81B4
:100D4000282F30E081E090E0022E02C0880F991F2A
:100D50000A94E2F7809584238C930F900F900F9064
:100D60000F900F90CF91DF910895DF93CF9300D034
:100D700000D00F92CDB7DEB789836A834B83898118
:100D8000282F30E03D832C838C819D81813091051B
:100D900009F443C02C813D81223031052CF48C8133
:100DA0009D81009771F0BCC02C813D8122303105BE
:100DB00009F45FC08C819D818330910509F485C061
:100DC000AFC08B818130A1F4ABE3B0E0EBE3F0E0A6
:100DD0008081482F8A81282F30E081E090E0022E28
:100DE00002C0880F991F0A94E2F7842B8C9398C055
:100DF000ABE3B0E0EBE3F0E08081482F8A81282F5D
:100E000030E081E090E0022E02C0880F991F0A9422
:100E1000E2F7809584238C9383C08B818130A1F489
:100E2000A8E3B0E0E8E3F0E08081482F8A81282F32
:100E300030E081E090E0022E02C0880F991F0A94F2
:100E4000E2F7842B8C936CC0A8E3B0E0E8E3F0E019
:100E50008081482F8A81282F30E081E090E0022EA7
:100E600002C0880F991F0A94E2F7809584238C931F
:100E700057C08B818130A1F4A5E3B0E0E5E3F0E059
:100E80008081482F8A81282F30E081E090E0022E77
:100E900002C0880F991F0A94E2F7842B8C9340C0FC
:100EA000A5E3B0E0E5E3F0E08081482F8A81282FB8
:100EB00030E081E090E0022E02C0880F991F0A9472
:100EC000E2F7809584238C932BC08B818130A1F431
:100ED000A2E3B0E0E2E3F0E08081482F8A81282F8E
:100EE00030E081E090E0022E02C0880F991F0A9442
:100EF000E2F7842B8C9314C0A2E3B0E0E2E3F0E0CD
:100F00008081482F8A81282F30E081E090E0022EF6
:100F100002C0880F991F0A94E2F7809584238C936E
:100F20000F900F900F900F900F90CF91DF91089539
:100F3000DF93CF9300D000D00F92CDB7DEB78A8376
:100F40006B8319828A81282F30E03D832C834C816A
:100F50005D8141305105B1F18C819D8182309105D7
:100F600034F42C813D812115310571F084C04C8110
:100F70005D814230510509F443C08C819D818330ED
:100F8000910509F45BC077C0E9E3F0E08081482F68
:100F900050E08B81282F30E081E090E002C0880F84
:100FA000991F2A95E2F79A01282339238B81882FEC
:100FB00090E0A90102C0559547958A95E2F7CA01CC
:100FC000898359C0E6E3F0E08081482F50E08B81AF
:100FD000282F30E081E090E002C0880F991F2A9509
:100FE000E2F79A01282339238B81882F90E0A90109
:100FF00002C0559547958A95E2F7CA0189833BC09F
:10100000E3E3F0E08081482F50E08B81282F30E02F
:1010100081E090E002C0880F991F2A95E2F79A01BB
:10102000282339238B81882F90E0A90102C0559590
:1010300047958A95E2F7CA0189831DC0E0E3F0E095
:101040008081482F50E08B81282F30E081E090E0B4
:1010500002C0880F991F2A95E2F79A0128233923A5
:101060008B81882F90E0A90102C0559547958A95FC
:10107000E2F7CA01898389810F900F900F900F903A
:101080000F90CF91DF910895DF93CF9300D000D0E0
:10109000CDB7DEB789836A838981282F30E03C830E
:1010A0002B838B819C818130910511F12B813C81B7
:1010B000223031052CF48B819C81009761F03EC079
:1010C0002B813C812230310501F18B819C81833061
:1010D000910541F133C08A818F3F29F4EAE3F0E0C2
:1010E0008A8180832BC0EAE3F0E08A81808326C076
:1010F0008A818F3F29F4E7E3F0E08A8180831EC074
:10110000E7E3F0E08A81808319C08A818F3F29F468
:10111000E4E3F0E08A81808311C0E4E3F0E08A81B7
:1011200080830CC08A818F3F29F4E1E3F0E08A815B
:10113000808304C0E1E3F0E08A8180830F900F9008
:101140000F900F90CF91DF910895DF93CF9300D050
:1011500000D0CDB7DEB789836A838981282F30E03C
:101160003C832B838B819C8181309105D1F02B8135
:101170003C81223031052CF48B819C81009761F0F9
:101180001EC02B813C812230310581F08B819C81F6
:101190008330910581F013C0EBE3F0E08A81808316
:1011A0000EC0E8E3F0E08A81808309C0E5E3F0E067
:1011B0008A81808304C0E2E3F0E08A8180830F901B
:1011C0000F900F900F90CF91DF910895DF93CF9301
:1011D00000D000D0CDB7DEB78A8319828A81282F4C
:1011E00030E03C832B838B819C8181309105D1F051
:1011F0002B813C81223031052CF48B819C8100971E
:1012000061F01EC02B813C812230310581F08B8141
:101210009C818330910581F013C0E9E3F0E0808187
:1012200089830EC0E6E3F0E08081898309C0E3E3AF
:10123000F0E08081898304C0E0E3F0E0808189836D
:1012400089810F900F900F900F90CF91DF910895AB
:10125000DF93CF9300D0CDB7DEB789836A838981CE
:101260006A8141E00E94D2050F900F90CF91DF91EB
:101270000895DF93CF9300D0CDB7DEB789836A831B
:1012800089816A8141E00E94B5060F900F90CF914D
:10129000DF910895DF93CF9300D0CDB7DEB7898378
:1012A0006A8389816A8140E00E94B5060F900F90A1
:1012B000CF91DF910895DF93CF93CDB7DEB70E9432
:1012C000760E0E947909FDCF1F920F920FB60F92F2
:1012D00011248F93DF93CF93CDB7DEB781E0809356
:1012E0006900CF91DF918F910F900FBE0F901F90EB
:1012F0001895DF93CF9300D0CDB7DEB7809168000B
:10130000282F30E03A83298389819A81833091059F
:1013100091F129813A81243031057CF489819A81C7
:101320008130910511F129813A812230310504F58E
:1013300089819A810097B1F02CC029813A812530AA
:101340003105F9F089819A8185309105BCF02981B8
:101350003A8126303105C1F089819A818730910523
:10136000B1F017C00E94CE0914C00E94720A11C0C9
:101370000E94020B0EC00E94920B0BC00E94220C16
:1013800008C00E94B20C05C00E944F0D02C00E940E
:10139000E70D0F900F90CF91DF910895DF93CF93DA
:1013A000CDB7DEB72E970FB6F894DEBF0FBECDBF18
:1013B00080E060E00E94390980E061E00E944A0913
:1013C00080E062E00E944A0981E060E00E944A09F0
:1013D00081E061E00E944A0981E062E00E943909EF
:1013E00082E062E00E94390980E090E4ACE9B5E473
:1013F0008B879C87AD87BE876B857C858D859E8519
:1014000020E030E04AE753E40E941F02DC01CB01F8
:101410008F839887A987BA876F81788589859A8510
:1014200020E030E040E85FE30E94790388232CF459
:1014300081E090E09E838D833FC06F8178858985B0
:101440009A8520E03FEF4FE757E40E9419031816F2
:101450004CF56B857C858D859E8520E030E040E2F3
:1014600051E40E941F02DC01CB01BC01CD010E94AE
:101470004900DC01CB019E838D830FC089E190E0A0
:101480009C838B838B819C810197F1F79C838B8359
:101490008D819E8101979E838D838D819E81009792
:1014A00069F714C06F81788589859A850E94490003
:1014B000DC01CB019E838D838D819E819A838983FC
:1014C00089819A810197F1F79A83898381E08093DA
:1014D00068002E960FB6F894DEBF0FBECDBFCF9139
:1014E000DF910895DF93CF93CDB7DEB72E970FB678
:1014F000F894DEBF0FBECDBF80E060E00E944A09D5
:1015000080E061E00E94390980E090E0AAEFB4E455
:101510008B879C87AD87BE876B857C858D859E85F7
:1015200020E030E04AE753E40E941F02DC01CB01D7
:101530008F839887A987BA876F81788589859A85EF
:1015400020E030E040E85FE30E94790388232CF438
:1015500081E090E09E838D833FC06F81788589858F
:101560009A8520E03FEF4FE757E40E9419031816D1
:101570004CF56B857C858D859E8520E030E040E2D2
:1015800051E40E941F02DC01CB01BC01CD010E948D
:101590004900DC01CB019E838D830FC089E190E07F
:1015A0009C838B838B819C810197F1F79C838B8338
:1015B0008D819E8101979E838D838D819E81009771
:1015C00069F714C06F81788589859A850E944900E2
:1015D000DC01CB019E838D838D819E819A838983DB
:1015E00089819A810197F1F79A83898382E08093B8
:1015F00068002E960FB6F894DEBF0FBECDBFCF9118
:10160000DF910895DF93CF93CDB7DEB72E970FB656
:10161000F894DEBF0FBECDBF80E061E00E944A09B2
:1016200080E062E00E94390980E090E0AAE7B4E43B
:101630008B879C87AD87BE876B857C858D859E85D6
:1016400020E030E04AE753E40E941F02DC01CB01B6
:101650008F839887A987BA876F81788589859A85CE
:1016600020E030E040E85FE30E94790388232CF417
:1016700081E090E09E838D833FC06F81788589856E
:101680009A8520E03FEF4FE757E40E9419031816B0
:101690004CF56B857C858D859E8520E030E040E2B1
:1016A00051E40E941F02DC01CB01BC01CD010E946C
:1016B0004900DC01CB019E838D830FC089E190E05E
:1016C0009C838B838B819C810197F1F79C838B8317
:1016D0008D819E8101979E838D838D819E81009750
:1016E00069F714C06F81788589859A850E944900C1
:1016F000DC01CB019E838D838D819E819A838983BA
:1017000089819A810197F1F79A83898383E0809395
:1017100068002E960FB6F894DEBF0FBECDBFCF91F6
:10172000DF910895DF93CF93CDB7DEB72E970FB635
:10173000F894DEBF0FBECDBF81E060E00E943909A2
:1017400081E062E00E944A0980E090E4ACE9B5E4FF
:101750008B879C87AD87BE876B857C858D859E85B5
:1017600020E030E04AE753E40E941F02DC01CB0195
:101770008F839887A987BA876F81788589859A85AD
:1017800020E030E040E85FE30E94790388232CF4F6
:1017900081E090E09E838D833FC06F81788589854D
:1017A0009A8520E03FEF4FE757E40E94190318168F
:1017B0004CF56B857C858D859E8520E030E040E290
:1017C00051E40E941F02DC01CB01BC01CD010E944B
:1017D0004900DC01CB019E838D830FC089E190E03D
:1017E0009C838B838B819C810197F1F79C838B83F6
:1017F0008D819E8101979E838D838D819E8100972F
:1018000069F714C06F81788589859A850E9449009F
:10181000DC01CB019E838D838D819E819A83898398
:1018200089819A810197F1F79A83898384E0809373
:1018300068002E960FB6F894DEBF0FBECDBFCF91D5
:10184000DF910895DF93CF93CDB7DEB72E970FB614
:10185000F894DEBF0FBECDBF81E060E00E944A0970
:1018600081E061E00E94390980E090E0AAEFB4E4F1
:101870008B879C87AD87BE876B857C858D859E8594
:1018800020E030E04AE753E40E941F02DC01CB0174
:101890008F839887A987BA876F81788589859A858C
:1018A00020E030E040E85FE30E94790388232CF4D5
:1018B00081E090E09E838D833FC06F81788589852C
:1018C0009A8520E03FEF4FE757E40E94190318166E
:1018D0004CF56B857C858D859E8520E030E040E26F
:1018E00051E40E941F02DC01CB01BC01CD010E942A
:1018F0004900DC01CB019E838D830FC089E190E01C
:101900009C838B838B819C810197F1F79C838B83D4
:101910008D819E8101979E838D838D819E8100970D
:1019200069F714C06F81788589859A850E9449007E
:10193000DC01CB019E838D838D819E819A83898377
:1019400089819A810197F1F79A83898385E0809351
:1019500068002E960FB6F894DEBF0FBECDBFCF91B4
:10196000DF910895DF93CF93CDB7DEB72E970FB6F3
:10197000F894DEBF0FBECDBF81E061E00E944A094E
:1019800081E062E00E94390980E062E00E9439094A
:1019900080E090E0AAE7B4E48B879C87AD87BE87A0
:1019A0006B857C858D859E8520E030E04AE753E499
:1019B0000E941F02DC01CB018F839887A987BA8719
:1019C0006F81788589859A8520E030E040E85FE383
:1019D0000E94790388232CF481E090E09E838D831C
:1019E0003FC06F81788589859A8520E03FEF4FE77A
:1019F00057E40E94190318164CF56B857C858D857C
:101A00009E8520E030E040E251E40E941F02DC01AC
:101A1000CB01BC01CD010E944900DC01CB019E83BA
:101A20008D830FC089E190E09C838B838B819C81A7
:101A30000197F1F79C838B838D819E8101979E8313
:101A40008D838D819E81009769F714C06F817885A1
:101A500089859A850E944900DC01CB019E838D8394
:101A60008D819E819A83898389819A810197F1F77B
:101A70009A83898380916900882331F086E080937E
:101A800068001092690002C0109268002E960FB68E
:101A9000F894DEBF0FBECDBFCF91DF910895DF93E5
:101AA000CF93CDB7DEB72E970FB6F894DEBF0FBE3B
:101AB000CDBF82E060E00E94390982E062E00E94CE
:101AC0004A0980E062E00E94390981E062E00E94F8
:101AD000390980E090E4ACE9B5E48B879C87AD8759
:101AE000BE876B857C858D859E8520E030E04AE74A
:101AF00053E40E941F02DC01CB018F839887A987E2
:101B0000BA876F81788589859A8520E030E040E842
:101B10005FE30E94790388232CF481E090E09E83A8
:101B20008D833FC06F81788589859A8520E03FEF5E
:101B30004FE757E40E94190318164CF56B857C8516
:101B40008D859E8520E030E040E251E40E941F0236
:101B5000DC01CB01BC01CD010E944900DC01CB01BD
:101B60009E838D830FC089E190E09C838B838B8162
:101B70009C810197F1F79C838B838D819E810197D6
:101B80009E838D838D819E81009769F714C06F813C
:101B9000788589859A850E944900DC01CB019E8366
:101BA0008D838D819E819A83898389819A81019712
:101BB000F1F79A83898387E0809368002E960FB6A9
:101BC000F894DEBF0FBECDBFCF91DF910895DF93B4
:101BD000CF93CDB7DEB72E970FB6F894DEBF0FBE0A
:101BE000CDBF82E060E00E944A0982E062E00E948C
:101BF000390980E090E0AAE7B4E48B879C87AD8741
:101C0000BE876B857C858D859E8520E030E04AE728
:101C100053E40E941F02DC01CB018F839887A987C0
:101C2000BA876F81788589859A8520E030E040E821
:101C30005FE30E94790388232CF481E090E09E8387
:101C40008D833FC06F81788589859A8520E03FEF3D
:101C50004FE757E40E94190318164CF56B857C85F5
:101C60008D859E8520E030E040E251E40E941F0215
:101C7000DC01CB01BC01CD010E944900DC01CB019C
:101C80009E838D830FC089E190E09C838B838B8141
:101C90009C810197F1F79C838B838D819E810197B5
:101CA0009E838D838D819E81009769F714C06F811B
:101CB000788589859A850E944900DC01CB019E8345
:101CC0008D838D819E819A83898389819A810197F1
:101CD000F1F79A838983109268002E960FB6F894D4
:101CE000DEBF0FBECDBFCF91DF910895DF93CF93BD
:101CF000CDB7DEB780E060E00E94280980E061E0B7
:101D00000E94280980E062E00E94280981E060E0EA
:101D10000E94280981E061E00E94280981E062E0D8
:101D20000E94280982E060E00E94280982E062E0C7
:101D30000E94280983E062E00E94A305A5E5B0E0C7
:101D4000E5E5F0E0808183608C93ABE5B0E0EBE506
:101D5000F0E0808180648C937894CF91DF91089536
:101D60002F923F924F925F926F927F928F929F92AB
:101D7000AF92BF92CF92DF92EF92FF920F931F9399
:101D8000CF93DF93CDB7DEB7CA1BDB0B0FB6F8944A
:101D9000DEBF0FBECDBF09942A88398848885F848A
:101DA0006E847D848C849B84AA84B984C884DF80FB
:101DB000EE80FD800C811B81AA81B981CE0FD11DDF
:101DC0000FB6F894DEBF0FBECDBFED010895F894B5
:021DD000FFCF43
:081DD200000000000000000009
:00000001FF
